:020000040800F2
:1000000010020020D5000008FF010008FD010008D3
:1000100000000000000000000000000000000000E0
:100020000000000000000000000000003D02000889
:100030000000000000000000010200085902000852
:10004000E700000800000000E7000008E7000008E3
:10005000E7000008E7000008E7000008E7000008E4
:10006000E7000008E7000008E7000008E7000008D4
:10007000E7000008E7000008E7000008E7000008C4
:1000800000000000E7000008000000000000000081
:1000900000000000E7000008E7000008E700000893
:1000A00000000000E700000800000000E700000872
:1000B0000000000000000000000000000000000040
:1000C0000348854600F034F800480047D90400088A
:1000D000100200200448804704480047FEE7FEE77E
:1000E000FEE7FEE7FEE7FEE75D020008C10000084C
:1000F00070B50446002903D000202022012310E01F
:10010000002801D00020C043C046C0460DE025466F
:10011000D5408D4205D30D469540641B1D46954044
:1001200040191546521E002DF1DC214670BD00001D
:10013000064C0125064E05E0E36807CC2B430C3C3A
:1001400098471034B442F7D3FFF7BEFF14060008F7
:1001500034060008F0B50A6800231C4614E00326A4
:100160009E400768B74307609D4007682F430760BC
:10017000C568B543C560CD799D40C6682E43C6604D
:100180009B1C641C102C1DD01546E540ED07F7D0D4
:100190000D796E1E012EE2D803269E408768B74374
:1001A00087604E799E408768374387600126A64066
:1001B0004768B74347608E79A640B6B24768374371
:1001C0004760CCE70A68097A002903D0016B9143A4
:1001D0000163F0BD016B11430163F0BD10B54B0726
:1001E000DB0E0F249C40C90889004018016AA14316
:1001F00001629A40016A1143016210BDFEE7704737
:1002000070470000054A002903D0116801431160BE
:1002100070471168814311607047C0461410024056
:10022000054A002903D01168014311607047116825
:10023000814311607047C0461810024070470000AB
:10024000001F414241418800A1490A6804239A43A2
:10025000101808607047C04670470000F0B585B0C0
:100260003548031F19680122114319600168334C96
:100270000C400460C16A1324A143C16200214160A3
:100280002F4C2468250C254205D11D686405A40C5B
:100290001D6825431D600491039102910191009115
:1002A0001C6814431C600F24E402264D2E68A643EC
:1002B0002E600724E6022F6837432F60224E1F6806
:1002C00002252F400397049F7F1C0497039F002F54
:1002D00002D1049FB742F2D11B689B0701D403915E
:1002E00000E00392194A039B012B21D1136802936A
:1002F000029BA3430293029B2B4313600368019369
:10030000F023019D9D430195019B036003680093C9
:100310002302009C9C430094009B03600368032419
:10032000A34303600368036003681B079B0FFBD1B3
:10033000516705B0F0BDC046041002401CB8FFF87C
:1003400020F8FF1FE8100240FFFF000000200240DD
:100350000268002903D001210A4302607047024964
:100360000A4002607047C046FEFF0000426C054B29
:10037000002903D0591C0A43426470471A40426462
:100380007047C046FF7F0000F0B5026A194B13406A
:100390000362036A202293434A888C891443220112
:1003A0001A4345680C888369904EB04214D1C02628
:1003B000B243CE8936014027BE4316438A881201D4
:1003C00032430D4E35400E8AB6000C4F37402F4356
:1003D0004D8AAD003D43ADB2ADB24560084D2B40F6
:1003E00024021C43A3B283618968816391B20162D4
:1003F000F0BDC046EFFF0000FFF30000FCF7000077
:10040000FF8C00008269034B13400902194389B233
:1004100081617047FFF7000010B50468734A90428D
:1004200003D001239B07984204D170239C434B883F
:10043000234300E023460B4CA04205D003242402B2
:10044000A3430C891C4300E01C46A3B203604B6825
:10045000C3620B888362904201D1897A11630121C2
:10046000416110BD0010004080B50420C043FFF77B
:10047000E7FE074800680749FFF73AFE064908709B
:10048000C0B27D21C90041431048018080BDC046F3
:100490000000002000127A000A00002010B5002899
:1004A00013D00A49098848430949486000208860F8
:1004B0000B68012213430B60064B0C681C40012C97
:1004C000FBD00B6893430B60886010BD08000020D0
:1004D00010E000E0010001008CB0424C049404984C
:1004E000002803D00498401E0490F8E70494049870
:1004F000002803D00498401E0490F8E70494049860
:10050000002803D00498401E0490F8E7FFF7ACFFE2
:10051000601C01242146FFF775FE334D0221029134
:10052000032201922846FFF759FE04AF00263E72CF
:10053000042003900490812040000590284639460D
:10054000FFF708FE60042146FFF75CFE0920C506A0
:1005500028462146019AFFF741FE0298049028465A
:100560003946FFF7F7FDE0022146FFF759FE09A9DA
:100570000E818E72FF200A901F2009901B4D284685
:10058000FFF74AFF04A9039A8A8020020890079681
:100590000692174804902846FFF7F6FE08212846E1
:1005A000FFF730FF28462146FFF7D2FE28462146B6
:1005B000FFF7DCFE274601E0C0433618F5B20B48D2
:1005C00085630520FFF76AFF002D214600D03946DC
:1005D0000020FF2D074600D00F463906ECD02046FC
:1005E0003619EBE7FFFF0F00000C0048002C01401C
:1005F0006000010002E008C8121F08C1002AFAD1F9
:1006000070477047002001E001C1121F002AFBD192
:1006100070470000380600080000002008000000B5
:10062000F405000840060008080000200802000049
:1006300004060008000000000048E8010000000077
:04000005080000C12E
:00000001FF
